:100000000C9434000C943E000C943E000C943E0082
:100010000C943E000C943E000C943E000C943E0068
:100020000C943E000C943E000C943E000C943E0058
:100030000C943E000C943E000C943E000C943E0048
:100040000C943E000C943E000C943E000C943E0038
:100050000C943E000C943E000C943E000C943E0028
:100060000C943E000C943E0011241FBECFEFD8E04C
:10007000DEBFCDBF0E948B000C94F1010C940000F8
:10008000843049F1853040F48230A9F08330D8F4CF
:10009000813009F03FC007C0863069F1863018F121
:1000A0008730C1F530C0613011F4589A0895662345
:1000B00089F558980895613011F4599A0895662386
:1000C00049F559980895613011F45A9A08956623B4
:1000D00009F55A980895613011F45B9A08956623E2
:1000E000C9F45B980895613011F45C9A0895662311
:1000F00089F45C980895613011F45D9A089566233F
:1001000049F45D980895613011F45E9A089566236C
:1001100009F45E980895CF93DF938FEF8AB91BB8E7
:100120002198299A22982A9A23982B9AC8ECD0E0F1
:1001300081E060E00E94400082E060E00E944000B8
:1001400083E060E00E94400084E060E00E944000A4
:1001500085E060E00E94400086E060E00E94400090
:1001600087E060E00E94400081E061E00E94400082
:1001700080E991E0FE013197F1F70197D9F786E028
:1001800060E00E94400080E991E0FE013197F1F7C4
:100190000197D9F782E061E00E94400080E991E098
:1001A000FE013197F1F70197D9F781E060E00E94F5
:1001B000400080E991E0FE013197F1F70197D9F70E
:1001C00083E061E00E94400080E991E0FE01319708
:1001D000F1F70197D9F782E060E00E94400080E9E2
:1001E00091E0FE013197F1F70197D9F784E061E0E2
:1001F0000E94400080E991E0FE013197F1F70197FC
:10020000D9F783E060E00E94400080E991E0FE01C0
:100210003197F1F70197D9F785E061E00E9440003E
:1002200080E991E0FE013197F1F70197D9F784E079
:1002300060E00E94400080E991E0FE013197F1F713
:100240000197D9F786E061E00E94400080E991E0E3
:10025000FE013197F1F70197D9F785E060E00E9440
:10026000400080E991E0FE013197F1F70197D9F75D
:10027000199949C081E061E00E94400082E061E09C
:100280000E94400083E060E00E94400084E060E063
:100290000E94400085E060E00E94400086E061E04E
:1002A0000E94400087E061E00E94400082EE94E0FE
:1002B000FE013197F1F70197D9F781E060E00E94E4
:1002C000400082E060E00E94400083E061E00E9424
:1002D000400084E061E00E94400085E061E00E940F
:1002E000400086E060E00E94400087E061E00E94FC
:1002F000400082EE94E0FE013197F1F70197D9F7C3
:100300001B99B8CF15CF1A9913CF81E061E00E94F5
:10031000400082E060E00E94400083E060E00E94D4
:10032000400084E060E00E94400085E060E00E94C0
:10033000400086E060E00E94400087E060E00E94AC
:10034000400080ED97E0FE013197F1F70197D9F772
:1003500081E060E00E94400082E060E00E94400096
:1003600083E060E00E94400084E060E00E94400082
:1003700085E060E00E94400086E060E00E9440006E
:1003800087E061E00E94400080ED97E0FE01319738
:10039000F1F70197D9F781E060E00E94400082E028
:1003A00060E00E94400083E060E00E94400084E042
:1003B00061E00E94400085E060E00E94400086E02D
:1003C00060E00E94400087E060E00E94400080ED15
:1003D00097E0FE013197F1F70197D9F71B9995CF77
:0603E000A7CEF894FFCF48
:00000001FF
